:100000000080002081010000CD010000CD01000032
:10001000CD010000CD010000CD010000CD010000A8
:10002000CD010000CD010000CD010000CD01000098
:10003000CD010000CD010000CD010000CD01000088
:10004000CD010000CD010000CD010000ED4A00000F
:10005000CD010000CD010000CD010000CD01000068
:10006000CD010000CD010000CD010000FB4A0000E1
:10007000CD010000CD010000CD010000CD01000048
:10008000CD010000B14A0000CD010000450B000089
:10009000CD010000CD010000CD010000CD01000028
:1000A000CD010000CD010000CD010000CD01000018
:1000B000CD010000CD010000CD010000CD01000008
:1000C00010B5064C2378002B07D1054B002B02D02E
:1000D000044800E000BF0123237010BD9C000020F5
:1000E0000000000008910000044B10B5002B03D065
:1000F0000349044800E000BF10BDC04600000000F6
:10010000A000002008910000164B002B00D1144BDA
:100110009D46402292029A1A924600218B460F4633
:100120001348144A121A04F09AFF0F4B002B00D008
:1001300098470E4B002B00D0984700200021040068
:100140000D000D48002802D00C4800E000BF04F06C
:1001500059FF2000290004F013FE04F03DFFC046C3
:1001600000000800008000200000000000000000E7
:100170009C000020886B00200000000000000000B0
:1001800080B584B000AF00F093F80D4BFB600D4BD1
:10019000BB600C4B7B600C4B3B600AE0FA68131DA4
:1001A000FB60BB68191DB96012681A607B68043374
:1001B0007B607A683B689A42F0D3FFF7A5FFC046A0
:1001C00014910000000000209C00002080B500AFCA
:1001D000FEE7000080B582B000AF00F027F8030012
:1001E0007B600C4A84235B00D3581B0ADB05DB0DC4
:1001F0003B603B6801331900786804F043FE03005C
:100200007B60054B7A681A607B681800BD4602B0B7
:1002100080BDC04600400E400800002080B500AF01
:10022000014B1800BD4680BD006CDC0280B582B079
:1002300000AF164A9423D35807221340032B08D04B
:10024000042B02D0022B08D00BE0114B1B687B6003
:100250000BE080231B027B6007E00E4B1B687B607A
:1002600003E00D4B1B687B60C046084A80235B009F
:10027000D3581B0A1F22134001331900786804F079
:1002800001FE03001800BD4602B080BD00400E40D4
:1002900004000020000000200C00002080B500AF0A
:1002A000024B1B681800BD4680BDC0460000002000
:1002B00080B500AFC046BD4680BD80B500AF80238D
:1002C0001B021800BD4680BD80B500AFFA239B001D
:1002D0001800BD4680BD000080B500AF024B1B6812
:1002E0001800BD4680BDC0460400002080B582B025
:1002F00000AF114B7B60114B1B7801225340DBB2E6
:10030000002B14D00D4B01221A700CE07B681B6887
:10031000984703003B603B68002B01D03B6807E037
:100320007B6804337B607B681B68002BEED1002365
:100330001800BD4602B080BD10000020E40000207F
:1003400080B584B000AF78603960104B1B78012213
:100350005340DBB2002B02D00D4BFB6011E07B68F9
:10036000002B0CDC7B682C225A430A4BD1183B68CB
:100370002C22180004F06AFE0023FB6001E0064B0B
:10038000FB60FB681800BD4604B080BDE40000209F
:1003900005001180B80000200200118080B584B0F3
:1003A00000AF7860124B1B7801225340DBB2002B68
:1003B00002D0104BFB6016E00F4B1B68002B10DCCB
:1003C0000D4B1B68591C0C4A11602C225A430B4BD5
:1003D000D31879682C22180004F038FE0023FB6043
:1003E00001E0074BFB60FB681800BD4604B080BD10
:1003F000E400002005001180E8000020B800002083
:100400000100118080B58CB000AF00F021FB00F03E
:10041000AFFA00F039FB002300220F21022000F088
:1004200045FB002300220721032000F03FFB0023AF
:1004300000220E21022000F039FB002300220B21B4
:10044000012000F033FB002300220D21012000F0E9
:100450002DFB0023FB62FB6A002B01D0FB6A38E016
:100460003B001E4A1A603B0002221A743B00002225
:100470005A743B00B0225A603B00B022DA603B0065
:100480005A6813005B009A183B009A603B00144ABC
:100490005A613B00134A9A613B00134ADA613B0000
:1004A000124A1A623B00124A5A623B00114A9A628F
:1004B0003B001800FFF772FF0300FB62FB6A002B92
:1004C00006D13B000121180000F025F800F03FF8AC
:1004D000FB6A1800BD460CB080BDC046A4580000A1
:1004E000170500008D050000FD05000057060000FF
:1004F00015060000F904000080B584B000AF7860F4
:100500000023FB6000F0A4FA00F032FAFB68180048
:10051000BD4604B080BD80B582B000AF78600A00EF
:10052000FB1C1A70FB1C1B78002B07D00B21012031
:1005300000F0E2FAA02000F097FA03E00B2101207E
:1005400000F0EDFA00231800BD4602B080BD80B572
:1005500082B000AF0E21022000F0CEFA062000F09B
:1005600083FABB1D04221A80BB1D0221180000F073
:1005700035FA022000F078FA0E21022000F0CFFABE
:1005800000231800BD4602B080BD000080B586B0D3
:1005900000AFF860B9607A603B60BA6813005B0036
:1005A0009B18DA087B6853437B61BB68B02B01D092
:1005B0000E4B16E00E4B1A687B69D2180D4B9A420F
:1005C00004D93B6800221A600B4B0AE0084B1A68FA
:1005D0003B681A60064B1A687B69D218044B1A6094
:1005E00000231800BD4606B080BDC0460200118041
:1005F000180000204C2E00200100118080B582B030
:1006000000AF78603960024B1800BD4602B080BD73
:100610000400118080B586B000AFF860B9607A60E0
:100620003B60BB687B6100233B610BE07B6942223E
:100630000021180004F013FD7B6942337B613B69A4
:1006400001333B613A693B689A42EFD300231800BB
:10065000BD4606B080BD80B588B000AFF860B96017
:100660007A603B60BB68BB61BB6A0133BB620E2131
:10067000022000F041FA062000F0F6F9BB6A5B08A0
:10068000DBB255221340D9B2BB6ADBB2DB18DBB256
:1006900055229343DAB217203B180A431A703B18CD
:1006A0001B789B105BB2332213405AB23B181B7865
:1006B0009B005BB233218B435BB213435AB23B18AE
:1006C0001A703B181B781B115BB20F2213405AB2F1
:1006D0003B181B781B015BB20F218B435BB21343AA
:1006E0005AB23B181A703B181B781B021BB201222E
:1006F00013431BB29AB214217B181A807B18022173
:10070000180000F06BF90023FB6161E0BB69422136
:10071000180000F063F9BB694233BB61FB6A013B1F
:10072000FA699A4204D11423FB1805221A8046E084
:10073000FB69DAB217203B1802321A703B181B789B
:100740005B105BB2552213405AB23B181B785B001A
:100750005BB255218B435BB213435AB23B181A70FC
:100760003B181B789B105BB2332213405AB23B18E4
:100770001B789B005BB233218B435BB213435AB2AD
:100780003B181A703B181B781B115BB20F221340E9
:100790005AB23B181B781B015BB20F218B435BB233
:1007A00013435AB23B181A703B181B781B021BB23A
:1007B000012213431BB29AB21423FB181A8014238C
:1007C000FB180221180000F009F9FB690133FB61F5
:1007D000FA69FB6A9A4299D3022000F045F90E218A
:1007E000022000F09CF900231800BD4608B080BD2F
:1007F00080B584B000AF786039607B68C022D204D5
:1008000094466344FB60FB683A681A60C046BD4684
:1008100004B080BD80B584B000AF786039607B687B
:100820008022D20494466344FB60FB683A681A60F5
:10083000C046BD4604B080BD80B582B000AF0200A6
:100840003960FB1D1A70FB1D1B78002B0DD0FB1DA2
:100850001B78012B09D0FB1D1B78022B05D0FB1D3B
:100860001B78032B01D0FB1D1B78FB1D1A7813008E
:100870005B009B181B010C33064A981801223B6849
:100880009A4013001900FFF7C5FFC046BD4602B0ED
:1008900080BDC0460080084080B582B000AF020035
:1008A0003960FB1D1A70FB1D1B78002B0DD0FB1D42
:1008B0001B78012B09D0FB1D1B78022B05D0FB1DDB
:1008C0001B78032B01D0FB1D1B78FB1D1A7813002E
:1008D0005B009B181B010C33064A981801223B68E9
:1008E0009A4013001900FFF783FFC046BD4602B0CF
:1008F00080BDC0460080084080B582B000AF0200D5
:100900003960FB1D1A70FB1D1B78002B0DD0FB1DE1
:100910001B78012B09D0FB1D1B78022B05D0FB1D7A
:100920001B78032B01D0FB1D1B7801223B689A40EA
:1009300010000749FB1D1A7813005B009B181B0170
:10094000CB1818331860C046BD4602B080BDC04603
:100950000080084080B582B000AF7860034B7A68B1
:100960001A62C046BD4602B080BDC04600200640A7
:1009700090B589B000AF0023FB613B1D114A13CA3B
:1009800013C313CA13C3104B0121180001F0BAFF9F
:100990003B1D0E4A9A603B1D0D4A1900100003F0E2
:1009A00075FD0B4B0A225A67094B9B6F094A1A4087
:1009B000074B09490A439A67FB691800BD4609B00D
:1009C00090BDC046C058000000120400E06735002A
:1009D00000040140FFF8F8F80002030380B584B07A
:1009E00000AF786039600023FB6021E03B68012B99
:1009F00003D07B68012213400DD07B681B78134A1B
:100A00001900100003F022FE3B68013B3B607B684D
:100A100001337B600CE07B681B880C4A19001000D6
:100A200003F029FE3B68023B3B607B6802337B603E
:100A30003B68002BDAD1C046044B1B6920221340CF
:100A4000FAD0FB681800BD4604B080BD0004014028
:100A500080B582B000AF00237B6001F057FA7B685D
:100A60001800BD4602B080BD80B584B000AF78608C
:100A70000023FB607B68180001F030FBFB68180066
:100A8000BD4604B080BD000080B582B000AF002339
:100A90007B60054B0121180001F034FF7B681800D2
:100AA000BD4602B080BDC04600250A0090B587B0A3
:100AB00000AFF860B9603B60FB1D1A7000237B61DA
:100AC000FB1D1B78002B0FD113217B1804221A70F9
:100AD000C046FB68D8B23C687B181A78B968230016
:100AE00003F0DAFA7B6900E0024B1800BD4607B05C
:100AF00090BDC0460100138080B584B000AF78601F
:100B000039600023FB607B68DBB23A681100180093
:100B1000FFF7C2FEFB681800BD4604B080BD80B57B
:100B200084B000AF786039600023FB607B68DBB283
:100B30003A6811001800FFF77FFEFB681800BD46F9
:100B400004B080BD80B500AF0420FFF703FF064B63
:100B50001B68DAB2054B1B6819001000FFF7CCFECA
:100B6000C046BD4680BDC0464C2E0020502E002001
:100B700080B586B002AF78602D4B1B78002B01D07A
:100B8000002350E0FFF7B2FB0300FB60FB68002B83
:100B900001D0FB6847E0274B19000020FFF7D0FB8E
:100BA0000300FB60FB68002B01D0FB683BE0224B9D
:100BB000180000F061FD0300FB60FB68002B01D012
:100BC000FB6830E01C4B1B68002B01D10B232AE093
:100BD000184B5B689AB2194B1A80164BDB689AB2B5
:100BE000164B5A80154B00229A80144B0022DA8053
:100BF000124B1A88114B1A81104B5A880F4B5A818D
:100C00000B4B01221A700D4B1B881A000B4B5B8893
:100C1000534301930023009300230022002100206E
:100C200000F0DAFA00231800BD4604B080BDC046CB
:100C3000542E0020582E0020842E0020882E0020C4
:100C400080B582B000AF7860084B1B78012253401A
:100C5000DBB2002B01D0012303E07B68044A1A6059
:100C600000231800BD4602B080BDC046542E0020AF
:100C7000882E0020B0B582B000AF05000C00100037
:100C80001900BB1D2A1C1A803B1D221C1A80BB1C8C
:100C9000021C1A803B000A1C1A801E4B1B78012282
:100CA0005340DBB2002B01D001232EE0BB1D1A887C
:100CB000BB1C1B88D318184A1288934208DC3B1DC2
:100CC0001A883B001B88D318134A5288934201DDCF
:100CD00004231AE0BB1C1B88002B03D03B001B889D
:100CE000002B01D1052310E00B4BBA1D12889A800E
:100CF000094B3A1D1288DA80074BBA1C12881A81F8
:100D0000054B3A0012885A8100231800BD4602B0F4
:100D1000B0BDC046542E0020882E002090B595B05E
:100D200000AFBA607B600E23FB18021C1A800C23F4
:100D3000FB180A1C1A80C24B1B7801225340DBB2FD
:100D4000002B01D0012341E2BE4B1B68002B01D1D7
:100D500001233BE2BC4B5B891A000C23FB181B8868
:100D6000D31AB94A12895A430E23FB181B88D31A87
:100D7000BB627A68BB6A9A4201D9032326E2B34B6D
:100D80005B7C002B01D00A2320E24B23FB180022BE
:100D90001A7000237B640023BB63AC4B9B68DB08A9
:100DA0007B6200237B6300233B63A74BD9880C2025
:100DB0003B183A1812888A181A80A24B1B683A18F6
:100DC0001288796A4A439B183B62F9E19E4B1B8962
:100DD0001A000E23FB181B88D31A1A007B68934253
:100DE00000D91300FB647A68FB6CD31A7B60BB6B81
:100DF0007A6A53431A003B6A9B18FB63924B9988AB
:100E00000E22BB18BA1812888A181A808F4B1B7CC6
:100E1000002B00DAADE1012B00DCBAE0022B00D0A0
:100E2000A7E10E23FB181A8813005B009B18002B08
:100E300000DA0733DB10FB620E23FB181A8813005D
:100E40005B009B18072213407B64FB6AFA6BD31884
:100E50001B785BB27A6C08218A1AFF2111410A00C3
:100E600052B213405AB24323FB181A708DE0FB6C48
:100E7000002B34D07B6BBA68D3181B7819007B6BBE
:100E80000133BA68D3181B781B020B43FB61FA6964
:100E90003B6BDA401300DAB24B203B1807210A40C3
:100EA0001A703B6B03333B633B181A787B6C9A4098
:100EB00013005AB243217B181B785BB213435AB21A
:100EC0007B181A703B6B082B05DD3B6B083B3B63C3
:100ED0007B6B01337B63FB6C013BFB6414E0FB6ABF
:100EE000FA6BD3181B785BB2FF217A6C91400A0031
:100EF00052B213405AB243217B181B785BB21343A2
:100F00005AB27B181A7005E07B6C03337B647B6CF0
:100F1000072BACDDFB6AFA6BD31843217A181278E1
:100F20001A70FB6A0133FB627B1800221A707B6C1B
:100F3000082B20DD4B23FB181A787B6C0B21CB1A76
:100F40001A4143203B181A70FB6AFA6BD3181B78BE
:100F50005BB27A6C083AFF2191400A0052B213400A
:100F60005AB23B181B785BB2134359B2FB6AFA6B57
:100F7000D318CAB21A707B6C354A134004D5013BB2
:100F800008225242134301337B64FB6C002BBED119
:100F9000F2E00E23FB181B880722134007D17B6C5D
:100FA0000722134003D1FB6C072B00D982E00E23EC
:100FB000FB181B88FA6CD318FB6473E07B6CDB10A6
:100FC0001A00BB689B181B7819007B6C0722134022
:100FD00019410B00DAB24B23FB1801210A401A70A9
:100FE0001A4B1B7C002B04D14B23FB181B78002BC6
:100FF00008D1164B1B7C012B2CD14B23FB181B78E3
:10100000002B27D10E203B181B88DB089BB21A004F
:10101000FB6B9B181B785AB23B181B8807210B40AF
:10102000012199400B005BB213435AB23B181B8855
:10103000DB089BB21900FB6B5B18D2B21A7028E078
:10104000542E0020842E0020882E0020582E0020B0
:10105000070000800E203B181B88DB089BB21A009B
:10106000FB6B9B181B785BB23A18128807210A4069
:10107000012191400A0052B2D24352B213405AB2F7
:101080003B181B88DB089BB21900FB6B5B18D2B2C4
:101090001A700E217B181A887B1801321A807B6C1B
:1010A00001337B640E23FB181B88FA6C9A4200D92B
:1010B00084E75DE00E23FB181B88DB089BB21A0057
:1010C000FB6B9B18FB63FB6CDB08BB61BB69002BF4
:1010D00018D07B6CDB101A00BB689918BA69FB6BDF
:1010E000180003F0B3FFBB69DB001A00FB6C9B1A0E
:1010F000FB64BB69DB007A6CD3187B64BB69FA6B59
:10110000D318FB63FB6C002B35D043217B18FA6BA3
:1011100012781A700122FB6C9A401300DAB217247D
:101120003B19013A1A703B191B785BB2DB435BB287
:101130007A18127852B213405AB208007B181A700B
:101140007B6CDB101A00BB689B181B783A1912786D
:101150001340D9B23B183A1812780A431A70FB6B45
:101160003A1812781A707A6CFB6CD3187B6402E020
:1011700001E0C04600E0C0460C243B191A88BB6B56
:10118000D3185A11134B9200D3583A191188BA6BDD
:101190008A181F210A40012191400A0010003A19C3
:1011A0001188BA6B8A18521103431900094B920037
:1011B000D150BB6B0133BB630E23FB1800221A8096
:1011C0007B68002B00D001E6C04600231800BD4616
:1011D00015B090BDF02E0020B0B58EB000AF050068
:1011E0000C0010001900BB1D2A1C1A803B1D221C7C
:1011F0001A80FB1C021C1A70BB1C0A1C1A70BA4B0A
:101200001B7801225340DBB2002B01D001232CE2DA
:10121000B64B1B68002B01D1012326E2B44B5B7C4B
:10122000002B01D00A2320E20023BB62B04B9B6855
:10123000DB08BB61AF4BD9883B1D3A1D12888A1869
:101240001A80AA4B1B683A1D1288B9694A439B1839
:101250007B6104E2A74B1B891A00BB1D1B88D31AB4
:101260001A00FB6C934200D913007B63FA6C7B6B12
:10127000D31AFB649F4B9988BB1DBA1D12888A182C
:101280001A80BB6ABA6953431A007B699B18FB62D8
:10129000974B1B7C002B00DABCE1012B00DCB1E09A
:1012A000022B00D0B6E1FB1C1B78DB09DBB25AB283
:1012B000BB1C1B789B115BB202210B405BB213433A
:1012C0005AB24823FB181B785B115BB204210B4018
:1012D0005BB213435AB22723FB181A70BB1D1A883E
:1012E00013005B009B18002B00DA0733DB103B6216
:1012F000BB1D1A8813005B009B1807221340FB617B
:101300003B6AFA6AD3181B785BB2FA6908218A1A19
:10131000FF2111410A0052B213405AB23323FB1885
:101320001A706BE07B6B002B12D02723FB181A7806
:10133000FB699A4013005AB233217B181B785BB2C9
:1013400013435AB27B181A707B6B013B7B6314E02A
:101350003B6AFA6AD3181B785BB2FF21FA699140A5
:101360000A0052B213405AB233217B181B785BB289
:1013700013435AB27B181A7005E0FB690333FB6113
:10138000FB69072BCEDD3B6AFA6AD31833217A1842
:1013900012781A703B6A01333B627B1800221A7084
:1013A000FB69082B20DD2723FB181A78FB690B212A
:1013B000CB1A1A4133203B181A703B6AFA6AD318C9
:1013C0001B785BB2FA69083AFF2191400A0052B2D9
:1013D00013405AB23B181B785BB2134359B23B6AB5
:1013E000FA6AD318CAB21A70FB69434A134004D58B
:1013F000013B0822524213430133FB617B6B002BFC
:10140000BED10AE1BB1C1B78002B01D0002200E0FA
:10141000FF222723FB181A70354B1B7C012B05D1AB
:101420002722BB18BA181278D2431A707B6B072B8D
:1014300064D8BB1D1B887A6BD3187B632723FB18EA
:101440001B78002B4AD020E0BB1D1B88DB089BB219
:101450001A00FB6A9B181B785AB2BB1D1B88072118
:101460000B40012199400B005BB213435AB2BB1DE4
:101470001B88DB089BB21900FB6A5B18D2B21A709A
:10148000BB1D1A88BB1D01321A80BB1D1B887A6BDD
:101490009A42D9D8C0E0BB1D1B88DB089BB21A005A
:1014A000FB6A9B181B785BB2BA1D128807210A40A1
:1014B000012191400A0052B2D24352B213405AB2B3
:1014C000BB1D1B88DB089BB21900FB6A5B18D2B2FC
:1014D0001A70BB1D1A88BB1D01321A80BB1D1B88E8
:1014E0007A6B9A42D7D897E0542E0020842E0020A1
:1014F000582E0020882E002007000080BB1D1B886E
:10150000072213403B61BB1D1B88DB089BB21A00FE
:10151000FB6A9B18FB623B69002B34D033203B18DD
:10152000FA6A12781A7001223B699A401300DAB203
:101530000F217B18013A1A703B183A180C007918E1
:10154000127809780A401A7021007B181B785BB268
:10155000DB435BB22722BA18127852B213405AB258
:101560003B181B785BB213435AB23B181A70FB6AE4
:101570003A1812781A70FB6A0133FB623A697B6B86
:10158000D318083B7B637B6BDB08BB60BB68002B1D
:1015900011D02723FB181978BA68FB6A180003F0EA
:1015A0005EFDBB68DB001A007B6B9B1A7B63BB682C
:1015B000FA6AD318FB627B6B002B2DD033217B188A
:1015C000FA6A12781A7001227B6B9A401300DAB221
:1015D0000F243B19013A1A703B191B785BB2DB43AD
:1015E0005BB27A18127852B213405AB208007B18D4
:1015F0001A702723FB183A191B7812781340D9B2B6
:101600003B183A1812780A431A70FB6A3A18127893
:101610001A7001E0C04600E0C0463B1D1A88BB6A54
:10162000D3185A11134B9200D3583A1D1188BA6A35
:101630008A181F210A40012191400A0010003A1D1A
:101640001188BA6A8A18521103431900094B920093
:10165000D150BB1D00221A80BB6A0133BB62FB6CF8
:10166000002B00D0F6E5C04600231800BD460EB0A2
:10167000B0BDC046F02E002090B583B000AF7860BA
:101680000E4B9C690D4B59680C4BDA680C4B0B48A0
:10169000A0470B4B1B68002B01D10B230AE0084B22
:1016A0001A687B681A60074B1422FF21180003F0A8
:1016B000D6FC00231800BD4603B090BD582E002074
:1016C000842E0020F02E002090B58BB002AF404B4E
:1016D0009B68DB08FB603F4B1B687B6101233B6120
:1016E0000023FB610023BB6141E07B6901221340C1
:1016F00003D0BB690133BB6128E0BB69002B22D05A
:10170000354B1A68FB68F9694B43D318BB60304B03
:101710001C6A2F4B5A68B9682D48BB690193FB6955
:10172000009313000022A04703007B607B68002B1E
:1017300001D07B6847E0BA69FB69D3180133FB61CC
:101740000023BB6102E0FB690133FB61FA69BB69FD
:10175000D3181F22134003D07B695B087B6106E02E
:101760003B695A1C3A611B4A9B009B587B61FA6992
:10177000BB69D218164BDB689A42B6D3BB69002B03
:101780001AD0154B1A68FB68F9694B43D318BB6034
:101790000F4B1C6A0E4B5A68B9680D48BB69019320
:1017A000FB69009313000022A04703007B607B6865
:1017B000002B01D07B6806E0064B142200211800A4
:1017C00003F04DFC00231800BD4609B090BDC04693
:1017D000582E0020F02E0020842E002080B584B0EA
:1017E00000AFF860B9607A603B60FB681B0CDAB24E
:1017F000BB681A70FB681B0ADAB27B681A70FB6858
:10180000DAB23B681A70C046BD4604B080BD000025
:1018100080B588B000AF78607B68002B01D10523CC
:1018200039E07B6800225A607B681D4A9A60182361
:10183000FB181800FFF704FA0300FB61FB69002B9B
:1018400001D0FB6927E0BA697B681A6008217B1820
:1018500000221A607B1800225A60BB691B885A1E3E
:101860007B189A60BB695B885A1E7B18DA607A180D
:101870007B681100180000F017F80300FB61FB699A
:10188000002B01D0FB6906E0064A7B6811001800B6
:1018900000F0F4FAFB691800BD4608B080BDC046F0
:1018A000FFFFFF000C5C000090B587B000AF7860D0
:1018B00039607B68002B02D03B68002B01D10523E7
:1018C00044E03B681A683B689B689A4205DA3B68CB
:1018D0005A683B68DB689A4201DB042336E03B68C8
:1018E0001B68002B13DB3B685B68002B0FDB3B683E
:1018F0009A687B681B681B88013B9A4207DC3B683F
:10190000DA687B681B685B88013B9A4201DD032330
:101910001CE03B681A6808217B181A603B685A680B
:101920007B185A603B689A687B189A603B68DA6853
:101930007B18DA607B687A180C3313CA13C31268F9
:101940001A607B68180000F005F803001800BD4617
:1019500007B090BD90B583B000AF78607B68002B76
:1019600001D105231DE07B68DB6898B27B681B69A9
:1019700099B27B685B699AB27B68DB689BB2D31AC9
:101980009BB201339CB27B689B699AB27B681B69EE
:101990009BB2D31A9BB201339BB22200FFF76AF9C4
:1019A00003001800BD4603B090BDF0B589B002AF8A
:1019B000F860B9607A60FB68002B01D105232BE049
:1019C000FB680C337A68B968180000F094F80300DB
:1019D0001A0001235340DBB2002B01D001231BE08E
:1019E000FB6898681526BB1916257A19172439192A
:1019F000FFF7F4FEBB6898B27B6899B23B191C787C
:101A00007B191D78BB191B780122019200932B00D2
:101A10002200FFF7E1FB03001800BD4607B0F0BD50
:101A2000F0B589B002AFF860B9607A603B60FB68DE
:101A3000002B01D105232AE0FB680C337A68B968D2
:101A4000180000F058F803001A0001235340DBB2DD
:101A5000002B01D001231AE01526BB1916257A198F
:101A6000172439193868FFF7B9FEBB6898B27B684C
:101A700099B23B191C787B191D78BB191B78012280
:101A8000019200932B002200FFF7A6FB0300180031
:101A9000BD4607B0F0BD80B586B000AFF860B96054
:101AA0007A603B60BB6898B27B6899B23B689AB237
:101AB0003B6A9BB2FFF7DEF803007B617B69002B7A
:101AC00001D07B6913E03B683A6A53437A6A00218C
:101AD0000020FFF723F903007B617B69002B01D015
:101AE0007B6904E0FB681800FFF734FF030018006F
:101AF000BD4606B080BD80B584B000AFF860B96067
:101B00007A60FB68002B13D0FB681B68BA689A42A6
:101B10000EDBFB689B68BA689A4209DCFB685B686D
:101B20007A689A4204DBFB68DB687A689A4201DDD6
:101B3000002300E001231800BD4604B080BD80B53D
:101B40008CB000AFF8607A603B600B23FB180A1C76
:101B50001A7000237B62FB68002B01D1052321E171
:101B60000B23FB181B781F2B04D90B23FB181B78A6
:101B70007E2B01D9022315E1FB6828229B5C022BF6
:101B800019D10B217B181B789AB22E23FB18303AFF
:101B90001A807B181B783A2B03D12E23FB180A22BC
:101BA0001A800B23FB181B78202B0CD12E23FB183B
:101BB0000B221A8007E00B23FB181B789AB22E2306
:101BC000FB18203A1A802E23FB181A88FB681B8CFE
:101BD000013B9A4201DD0223E4E0FB68DB693B62E2
:101BE000FB68DB69FB61FB68DB69BB612C23FB18CD
:101BF00000221A80C8E0FB6822229B5C012B02D0E5
:101C0000022B0AD014E02E23FB181B883A6AD31843
:101C10001A782A23FB181A8014E02E23FB181B883D
:101C20005B00FA69D2182A23FB1812881A8009E08F
:101C30002E23FB181B889B00BA69D3181A682A2325
:101C4000FB181A802823FB1800221A804EE02A2352
:101C5000FB181B88012213401BD02823FB181A886D
:101C60007B68D1182C23FB181A883B68D218FB68B4
:101C70001800FFF79AFE03007B617B69012B01D9F5
:101C80007B698FE07B69002B24D17B6A01337B6207
:101C900020E03823FB181B78002B1BD02823FB18CF
:101CA0001A887B68D1182C23FB181A883B68D21835
:101CB000FB685B68F868FFF7B3FE03007B617B6934
:101CC000012B01D97B696DE07B69002B02D17B6A16
:101CD00001337B622A22BB18BA18128852081A8074
:101CE0002822BB18BA18128801321A80FB682422F5
:101CF0009B5C9BB22822BA1812889A42A7D326E08E
:101D00003823FB181B78002B1BD02823FB181A88BC
:101D10007B68D1182C23FB181A883B68D218FB6803
:101D20005B68F868FFF77CFE03007B617B69012B31
:101D300001D97B6936E07B69002B02D17B6A0133D4
:101D40007B622822BB18BA18128801321A80282315
:101D5000FB181A88FB6824215B5C1800FB682721AC
:101D60005B5CC3189A42CBDBFB6823229B5C99B275
:101D70002E22BB18BA1812888A181A802C217B18B8
:101D80001A887B1801321A80FB6825229B5C9BB263
:101D90002C22BA1812889A4200D22CE77B6A5A4247
:101DA0005341DBB21800BD460CB080BD90B58DB07C
:101DB00002AFF860B9607A603B6000237B62FB6829
:101DC000002B02D0BB68002B01D1052352E0FB6839
:101DD00028229B5C002B01D102234BE03B68FB6176
:101DE000BB6BBB6100233B623CE0BA683B6AD31823
:101DF0001B780A2B0DD13B68FB61FB6825229B5C9D
:101E00001A00BB69D318FA682621525C9B18BB6183
:101E100025E0BA683B6AD3181978BC69FA69F86892
:101E20003C23FB181B7800932300FFF788FE030078
:101E30007B617B69012B01D97B691BE07B69002BEE
:101E400002D17B6A01337B62FB6824229B5C190010
:101E5000FB6827229B5CCB18FA69D318FB613B6AAD
:101E600001333B623A6A7B689A42BED37B6A5A422C
:101E70005341DBB21800BD460BB090BD80B582B0B7
:101E800000AF786039607B68002B01D1052313E037
:101E90003B68002B08D17B681C33102200211800FE
:101EA00003F0DDF8052307E07B681C333968102256
:101EB000180003F0CBF800231800BD4602B080BD27
:101EC00080B582B000AF0200FB1D1A70FB1D1B78AD
:101ED0007F2B0AD8FB1D1B781A001F2313400549CE
:101EE00001229A40C0235B00CA50C046BD4602B0E2
:101EF00080BDC04600E100E080B500AF024B9B68AA
:101F00001800BD4680BDC04600200640B0B58AB06E
:101F100000AF2723FB1800221A702623FB1800228B
:101F20001A702523FB1800221A702423FB180022A4
:101F30001A702323FB1800221A703B00604A03CA60
:101F400003C312881A800023FB610023BB615D4A32
:101F5000B023D3580122134008D15B4B0121180054
:101F600000F0D0FC2623FB1801221A7017257C19DB
:101F7000564B180001F016F9030023707B191B78EB
:101F8000032B03D02423FB1801221A704D4A9023FF
:101F9000D3584022134003D12323FB1801221A7087
:101FA0004A4B0321180001F0F1F9494B180000F0E9
:101FB0008BFC03003B61434AF023D35801221340BA
:101FC00008D1434B0121180000F09CFC2523FB188D
:101FD00001221A7001F0D4FC0300FB603D4B1B682A
:101FE0000122134015D03B4B1B68FB61394B5B6AE8
:101FF000BB61384B00221A60364B00225A62354BC7
:10200000354A1A621320FFF75BFF2723FB180122D2
:102010001A703B0000229A703B000022DA703B00ED
:1020200008221A713B00180002F0BCF900F072F8A7
:10203000FB68180001F0B2FC2723FB181B78002B6B
:102040000CD03B69224A1900100000F04BFC214BD8
:10205000FA691A601F4BBA695A6202E0002002F066
:102060008DF92523FB181B78002B04D0184B002179
:10207000180000F047FC2423FB181B78002B07D026
:102080001723FB181B78114A1900100001F07EF984
:102090002323FB181B78002B04D0002200210120F1
:1020A00001F0F0FA2623FB181B78002B04D0064B16
:1020B0000021180000F026FCC046BD460AB0B0BDA5
:1020C0000C5E000000400E4000050A0005002400E0
:1020D000A009140000200640FF07000080B582B070
:1020E00000AF78607B680A49002B0CD0013B882246
:1020F0001202003253430A68D80AD20A50438009B8
:1021000001D00138FDD8C046BD4602B080BDC046F2
:102110001C00002080B584B000AF0823BB60344BA6
:10212000802252011A601CE000F064F803007B601A
:10213000C04600F05FF802007B689342F9D000F0DF
:1021400059F803007B602A4B1B68180000F05AF80E
:1021500000F050F802007B68D31A7B607B68002B8C
:1021600006D1234B1B685B00214A1360DCD100E0E1
:10217000C0461F4B1B685A081D4B1A601C4B1B683E
:10218000FB6026E01A4B1A68FB681A43184B1A606A
:1021900000F030F803007B60C04600F02BF802002E
:1021A0007B689342F9D000F025F803007B60104B68
:1021B0001B68180000F026F800F01CF802007B688D
:1021C000934206D0FB68DA43094B1B681A40084B60
:1021D0001A60BB685A1EBA60002B05D0FB685B080A
:1021E000FB60FB68002BCDD1C046BD4604B080BD6E
:1021F0001C00002080B500AFFFF77EFE0300180032
:10220000BD4680BD80B582B000AF78607B68013B81
:10221000FDD8C046BD4602B080BD80B586B000AFD7
:10222000F860B9607A60FB681B687B610122BB685B
:102230009A401300DB431A007B691A407B68012136
:102240001940BB6899400B001A43FB681A60C046EE
:10225000BD4606B080BD80B582B000AF7860396001
:102260007B681A683B68DA401300012213401800AB
:10227000BD4602B080BD80B584B000AF78603960E3
:102280007B68C022D20494466344FB60FB683A68D2
:102290001A60C046BD4604B080BD80B584B000AFB2
:1022A000786039607B688022D20494466344FB6086
:1022B000FB683A681A60C046BD4604B080BD80B570
:1022C00084B000AFF860B9607A60BA68FB6811004A
:1022D0001800FFF7E2FF7A68FB6811001800FFF7AB
:1022E000CAFFC046BD4604B080BD80B582B000AF15
:1022F000786001227B689A4013001800BD4602B046
:1023000080BD80B582B000AF78607B681800FFF7B1
:10231000ECFF03001800BD4602B080BD80B584B05C
:1023200000AF78607B680133180002F037FE0300CD
:10233000DBB21A001F239B1AFB60FB681800FFF733
:10234000D4FFFB681800BD4604B080BD80B500AF67
:10235000C046054B12211800FFF77DFF031EF8D180
:10236000C046BD4680BDC04604300E4080B500AFBB
:10237000FFF7ECFF044B5B681B0C03221340DBB23E
:102380001800BD4680BDC04600300E4080B584B008
:1023900000AF78600123FB607B68144A934204D845
:1023A0000023FB600023BB6008E07B68104A934277
:1023B00002D80123BB6001E00223BB60FB680D482B
:1023C0001A001021FFF729FF0A4A80235B00D35827
:1023D000094A1A40BB681B0606491A4380235B0062
:1023E000CA50C046BD4604B080BDC0460048E801A2
:1023F0000090D00300400E40FFFFFFFC80B582B08C
:1024000000AF044B1B687B607B681800BD4602B0C0
:1024100080BDC0462000002080B582B000AFFDF72F
:1024200005FF03007B60074A80235B00D3581B0A2B
:102430001F22134001337A6853431800BD4602B08F
:1024400080BDC04600400E4090B583B000AFFC1C7C
:102450000E4B180000F0A6FE03002370FB1C1B7837
:10246000072B06D0092B09D1FDF7E0FE03007B60A6
:1024700007E0FFF7C3FF03007B6002E000237B60FF
:10248000C0467B681800BD4603B090BD06000E0034
:10249000B0B584B000AF78607B68002B0DD10B2500
:1024A0007C19194B180000F07DFE03002370C04614
:1024B0007B191B78042B14D001E000231FE0042BB0
:1024C00002DC012B05D016E0072B05D0082B0DD020
:1024D00011E00023FB6011E0FFF790FF0300FB60B9
:1024E0000CE0FDF7DBFE0300FB6007E0FFF794FF65
:1024F0000300FB6002E00023FB60C046FB6818009D
:10250000BD4604B0B0BDC046B800320080B584B04E
:1025100000AF786039608023DB055A68C0239B04D4
:102520001340FB600023BB6013E01C4ABB68DB0068
:10253000D31804331A783B68DBB29A4206D1174BA2
:10254000BA68D200D3587A689A4206D9BB68013378
:10255000BB60BB68042BE8D900E0C046BB68052B14
:1025600002D10323FB6006E00C4ABB68DB00D318F2
:1025700005331B78FB60FB681B06FB608023DB05D3
:102580005B68074A134019008023DB05FA680A4399
:102590005A60C046BD4604B080BDC046185E00000B
:1025A000FFFFFFFC80B582B000AF8023DB051A6C13
:1025B000FB1D511E8A411A708023DB050A4A1A64EA
:1025C000FDF72CFE030000211800FFF79FFFFB1D05
:1025D0001B78002B03D08023DB0500221A64C04641
:1025E000BD4602B080BDC046711B000090B585B0ED
:1025F00000AF786039608023DB051A6C0F243B192B
:10260000511E8A411A708023DB050A4A1A643A680F
:102610007B6811001800FFF779FF3B191B78002B2E
:1026200003D08023DB0500221A64C046BD4605B0F6
:1026300090BDC046711B000080B500AF034B5B6AC4
:102640001B09032213401800BD4680BD00400E4008
:1026500080B582B000AF7860064B5B6A302293434E
:1026600019007B681A01034B0A435A62C046BD46F3
:1026700002B080BD00400E4090B585B000AF7860DC
:102680000023BB607B68354A934206D0344A9342AC
:1026900003D0344A934200D000E0C0467B68180063
:1026A00000F080FD0300FB607B682C4A93420DD054
:1026B0002B4A934211D02B4A934200D014E02A4A6D
:1026C0008023D35807221340FB600DE0264A842361
:1026D000D35807221340FB6006E0234A8823D358CF
:1026E00007221340FB60C046FB68042B2DD8FB6813
:1026F0009A001E4BD3181B689F46FDF7DEFD0300B2
:10270000BB6025E0FDF7E8FD0300BB6020E0FDF7BE
:10271000DBFD0300BB601BE0FDF75CFD0400124A1B
:1027200080235B00D3581B0E032213400133180093
:10273000FFF7E7FD03001900200002F0A3FB0300F0
:10274000BB6005E00023BB6002E00023BB60C04625
:10275000BB681800BD4605B090BDC0460300200010
:102760000500240002001E0000400E40405E0000F4
:1027700080B582B000AF7860094AA2235B00D358CD
:102780000122134008D1C046054AA0235B00D3585C
:102790007A681340F8D100E0C046BD4602B080BD63
:1027A00000400E4080B500AF084B0321180000F038
:1027B0006FFB074B0321180000F06AFB054B032158
:1027C000180000F065FBC046BD4680BD40410500D5
:1027D000504107006041090080B582B000AFFDF7AD
:1027E00025FD03003B60FFF7C1FD0300022B22D152
:1027F0003B682C4A944663442B49180002F042FB84
:1028000003007B607B68002B02D07B68013B7B6010
:102810007B68264A1900100000F03AFB7B68244AC6
:102820001900100000F034FB7B68224A19001000E8
:1028300000F02EFB31E03B681F4A944663441F4979
:10284000180002F01FFB03007B607B68002B02D0A6
:102850007B68013B7B607B68144A1900100000F024
:1028600017FB7B68134A1900100000F011FB3B684E
:10287000134A944663441349180002F003FB030013
:102880007B607B68002B02D07B68013B7B607B68B0
:10289000074A1900100000F0FBFAC046BD4602B01E
:1028A00080BDC046FF2C3101002D310140410500A3
:1028B00050410700604109007FF0FA0280F0FA02FF
:1028C000FFA14A0400A24A0480B582B000AF78603C
:1028D0007B68180000F0FEF9030001331800BD46C4
:1028E00002B080BD80B582B000AF786039603B68CF
:1028F0005A1E7B681100180000F0CAFAC046BD4697
:1029000002B080BD80B586B000AF78600A00FB1CC5
:102910001A7000233B617B681B0A0F2213400E2BA9
:1029200037D89A001D4BD3181B689F461C4B7B6100
:102930001BE01C4B7B6118E01B4B7B6115E01B4BC4
:102940007B6112E01A4B7B6101233B610DE0194B67
:102950007B6110233B6108E0174B7B6180235B02A6
:102960003B6102E0154B7B61C0467B681B0B1F225D
:102970001340FB603B69002B03D03B691800FFF755
:10298000F7FEFB1C1A78F9687B691800FFF745FC15
:1029900000E0C046BD4606B080BDC046545E0000A3
:1029A00000400E40B0400E40C0400E40C4400E40BB
:1029B000E0400E40E8400E40F0400E4050410E40D6
:1029C00080B584B000AF78607A68F8239B03134029
:1029D00080225203934200D153E18022520393425A
:1029E0002ED8C022D202934200D17EE0C022D20271
:1029F00093420BD880229202934200D1A0E0802221
:102A0000D20293425ED0002B57D052E1A022120393
:102A1000934200D18FE0A0221203934205D8802276
:102A20001203934200D173E043E1C02212039342A8
:102A300000D198E0E0221203934200D11CE138E17A
:102A400080229203934200D1D7E0802292039342E6
:102A500019D8B0225203934200D1A5E0B02252030C
:102A6000934205D8A0225203934200D195E020E181
:102A7000D0225203934200D1C6E0F0225203934287
:102A800000D183E015E1B8229203934200D1A3E084
:102A9000B8229203934205D890229203934200D128
:102AA000E3E006E1C0229203934200D1C4E0C822D1
:102AB0009203934200D1E9E0FBE0FDF7B7FB03008E
:102AC000FB60F9E0FDF7B2FB0300FB607D4A862363
:102AD0005B00D3581B0ADB05DB0D01331900F868D6
:102AE00002F0D0F90300FB60E6E0FDF79FFB030076
:102AF000FB60744A8C235B00D3581B0ADB05DB0D9B
:102B000001331900F86802F0BDF90300FB60D3E05F
:102B1000FDF78CFB0300FB606A4A8E235B00D358F1
:102B20001B0ADB05DB0D01331900F86802F0AAF976
:102B30000300FB60C0E0FDF779FB0300FB60BBE036
:102B4000FDF774FB0300FB605E4A84235B00D358EF
:102B50001B0ADB05DB0D01331900F86802F092F95E
:102B60000300FB60A8E0FDF761FB0300FB60554A32
:102B70008A235B00D3581B0A1F221340013319001C
:102B8000F86802F07FF90300FB6095E04E4B1800F7
:102B9000FFF772FD0300FB608EE04C4B1800FFF75F
:102BA0006BFD0300FB6087E0474B1800FFF764FDF7
:102BB0000300FB60434A90235B00D3581B090F229C
:102BC00013401800FFF79DFB03001900F86802F09E
:102BD00059F90300FB606FE03B4B1800FFF74CFD19
:102BE0000300FB60374A90235B00D3580322134055
:102BF000FA68DA401300FB605EE0354B1800FFF71F
:102C00003BFD0300FB6057E0314B1800FFF734FD3C
:102C10000300FB602B4A94235B00D3581B0903225B
:102C200013401800FFF76DFB03001900F86802F06D
:102C300029F90300FB603FE0254B1800FFF71CFD5E
:102C40000300FB601F4A94235B00D3581B0A032236
:102C5000134004331800FFF754FB03001900F86811
:102C600002F010F90300FB6026E0184B1800FFF794
:102C700003FD0300FB601FE0FFF7E6FB0300FB60C2
:102C80001AE0FFF7BBFB0300FB6015E00020FFF735
:102C9000FFFB0300FB600B4AAE235B00D35803220B
:102CA000134001331900F86802F0ECF80300FB60F0
:102CB00002E00023FB60C046FB681800BD4604B07C
:102CC00080BDC04600400E4002001E0005002400EA
:102CD0000300200080B584B000AF78607B681B09DA
:102CE0000F221340BB60BB680B2B00D9B7E0BB6859
:102CF0009A005F4BD3181B689F465E4A80235B0097
:102D0000D3581B0A1F221340FB60ABE0594A8A23A9
:102D10005B00D3581B0A1F221340FB60A2E0554AF8
:102D200080235B00D3581B0E03221340FB6099E005
:102D3000504A86235B00D3581B0ADB05DB0DFB6082
:102D400090E04C4A8C235B00D3581B0ADB05DB0D5B
:102D5000FB6087E0474A8E235B00D3581B0ADB05E4
:102D6000DB0DFB607EE0434A84235B00D3581B0AE3
:102D7000DB05DB0DFB6075E07B683F4A934203D0C7
:102D80003E4A934210D01EE03A4A90235B00D3584B
:102D90001B090F221340FB60FB681800FFF7B1FA14
:102DA0000300013BFB6011E0324A90235B00D358E3
:102DB00003221340FB60FB681800FFF7A2FA030030
:102DC000013BFB6002E00023FB60C0464AE07B68F9
:102DD0002B4A934203D02B4A934210D020E0254A3D
:102DE00094235B00D3581B0903221340FB60FB684C
:102DF0001800FFF786FA0300013BFB6013E01D4A51
:102E000094235B00D3581B0A03221340FB60FB682A
:102E100004331800FFF775FA0300013BFB6002E082
:102E20000023FB60C0461DE07B68174A934202D135
:102E30000023FB6002E00023FB60C04612E07B68D9
:102E4000124A934207D10B4AAE235B00D3580322A8
:102E50001340FB6002E00023FB60C04602E0002359
:102E6000FB60C046FB681800BD4604B080BDC0468C
:102E7000905E000000400E408016160080062E0076
:102E800090171A0090273000A0091400B8003200F3
:102E900080B584B000AF786039607B681B090F2271
:102EA0001340FB60FB680B2B00D959E1FB689A00CB
:102EB000AE4BD3181B689F46FFF774FBAC4B180052
:102EC000FFF764FAFFF76EFCAA4A80235B00D35831
:102ED000A94A1A403B681B02A6491A4380235B009B
:102EE000CA50FDF777F90300BB60FFF73FFA030014
:102EF0001A00BB6811001800FFF778FB9F4B180001
:102F0000FFF75EFD03001800FFF740FAFFF764FCCF
:102F100027E1984A8A235B00D358974A1A403B68B6
:102F20001B0294491A438A235B00CA5019E1914A53
:102F300080235B00D358924A1A403B681B068D4998
:102F40001A4380235B00CA500BE18A4A86235B0048
:102F5000D3588C4A1A403B681B0286491A43862381
:102F60005B00CA50FDE0834A8C235B00D358854A3E
:102F70001A403B681B027F491A438C235B00CA50EE
:102F8000EFE07C4A8E235B00D3587E4A1A403B68B0
:102F90001B0278491A438E235B00CA50E1E0FFF719
:102FA00001FB734B1800FFF7F1F9724A84235B00B1
:102FB000D358744A1A403B681B026E491A43842353
:102FC0005B00CA50FDF706F90300BB60FFF7CEF9BE
:102FD00003001A00BB6811001800FFF707FB674BDE
:102FE0001800FFF7EDFC03001800FFF7CFF9B8E079
:102FF0007B68654A934219D0644A93422ED0644A52
:10300000934200D041E08023DB021800FFF7B0FBC1
:10301000584A98235B00D358032293431A0055491A
:103020003B681A4398235B00CA502EE03B681800A7
:10303000FFF774F903003B600420FFF799FB4D4A4A
:1030400090235B00D358F02293431A003B681B0186
:1030500048491A4390235B00CA5016E03B681800A9
:10306000FFF75CF903003B600420FFF781FB414A56
:1030700090235B00D358032293431A003D493B68D9
:103080001A4390235B00CA50C0466AE07B68414AFD
:10309000934203D0404A934218D033E03B68180073
:1030A000FFF73CF903003B604020FFF761FB314A2A
:1030B00094235B00D358302293431A003B681B01D2
:1030C0002C491A4394235B00CA501BE03B687F2BBA
:1030D00000D8C0463B681800FFF720F90300043B06
:1030E0003B604020FFF744FB224A94235B00D35807
:1030F0002A4A1A403B681B021E491A4394235B006C
:10310000CA50C0462DE07B68214A934200D012E0AD
:103110008023DB021800FFF72BFB164A98235B0085
:10312000D358032293431A0012493B681A43982349
:103130005B00CA50C04614E07B68194A934200D035
:103140000DE00C4AAE235B00D358032293431A00D0
:1031500008493B681A43AE235B00CA50C04600E0F2
:10316000C046C046BD4604B080BDC046C05E00003B
:103170000148E80100400E40FFE0FFFF00050A00A3
:10318000FFFFFFFCFF00FEFF8016160080062E00EA
:10319000A009140090171A0090273000FFFCFFFFD1
:1031A000B800320080B584B000AF78600F23FB1800
:1031B00001221A707B680F221340BB60BB68082B8A
:1031C00000D9D2E0BB689A006E4BD3181B689F46AB
:1031D0006D4A9423D35807221340032B09D0042BA4
:1031E00002D0022B0AD00EE00F23FB1802221A7025
:1031F0000EE00F23FB1803221A7009E00F23FB18BF
:1032000004221A7004E00F23FB1805221A70C0462E
:10321000B0E05D4A8023D35807221340022B08D028
:10322000042B0BD0012B0ED10F23FB1803221A7095
:103230000EE00F23FB1802221A7009E00F23FB187F
:103240000A221A7004E00F23FB1801221A70C046EC
:1032500090E04D4A8423D35807221340022B0DD00F
:1032600002D8012B05D018E0032B11D0042B0AD073
:1032700013E00F23FB1803221A7013E00F23FB182F
:1032800002221A700EE00F23FB180A221A7009E0BE
:103290000F23FB1806221A7004E00F23FB180122EB
:1032A0001A70C04666E0384A8823D3580722134074
:1032B000022B08D0042B0BD0012B0ED10F23FB18AF
:1032C00003221A700EE00F23FB1802221A7009E085
:1032D0000F23FB180A221A7004E00F23FB180122A7
:1032E0001A70C04646E0284B1B6F0322134006D0DD
:1032F000012B09D10F23FB1809221A7009E00F23B3
:10330000FB1807221A7004E00F23FB1801221A7021
:10331000C0462FE01C4AAE235B00D3583022134036
:10332000102B0DD002D8002B05D018E0202B0CD08C
:10333000302B0FD013E00F23FB1801221A7013E07B
:103340000F23FB1807221A700EE00F23FB1804222C
:103350001A7009E00F23FB1808221A7004E00F23EB
:10336000FB1801221A70C04604E00F23FB1800224C
:103370001A70C0460F23FB181B781800BD4604B016
:1033800080BDC046F05E000000400E4080B58AB0AF
:1033900000AF78600A00FB1C1A7003237B622323B2
:1033A000FB1803221A700023BB6100237B617B683A
:1033B000112B1ED1FB1C1B78042B04D1FCF76EFFD4
:1033C00003007B610DE0FB1C1B78052B09D100F08D
:1033D00027F90200874B9A4203D900F021F9030034
:1033E0007B617B69002B04D07B690021180000F011
:1033F0005FFC7B680F2213403B613B69082B00D9BF
:10340000F0E03B699A007C4BD3181B689F46FB1C7D
:103410001B780A2B00D9E7E09A00784BD3181B6879
:103420009F4604237B622323FB1800221A701CE0B2
:1034300003237B622323FB1801221A7015E0022369
:103440007B622323FB1802221A706D4B1800FEF7D3
:103450009DFF0AE001237B622323FB1803221A70DD
:10346000674B1800FEF792FFC0462323FB181B781A
:1034700001220121180000F005F9FFF793F8FFF78A
:1034800091F97B69002B01D0FEF760FF5D4B7A6AF2
:103490005A675D4B1800FFF793FA03001800FEF718
:1034A00075FFFCF797FE0300FB60FEF75FFF03006C
:1034B0001A00FB6811001800FFF798F87B69002BD1
:1034C00003D10121002000F0F3FBFFF785F98EE026
:1034D000BB69002B01D0BB6900E04C4BBB61BB69F1
:1034E000002B01D0BB6900E0494BBB61BB69002BDD
:1034F00001D0BB6900E0474BBB61FB1C1B780A2B6A
:1035000000D973E09A00444BD3181B689F460023F0
:10351000FB6121E001220121002000F0B3F8022329
:10352000FB6119E001220121012000F0ABF8012329
:10353000FB6111E0FCF74EFE03001800FEF726FFCA
:10354000364B012200211800FEF767FE0323FB61C2
:1035500002E00423FB61C046BB69FA691A6046E0D9
:10356000FB1C1B78072B02D0092B04D03FE0254B16
:1035700000221A6703E0234B01221A67C04636E097
:10358000FB1C1B78042B13D002DC012B05D02EE092
:10359000072B05D0082B13D029E00023FB6112E094
:1035A00001220121042000F06DF80123FB610AE0F3
:1035B00001220121022000F065F80223FB6102E0F4
:1035C0000323FB61C0460F4AAE235B00D358302271
:1035D00093431A00FB691B010A491A43AE235B009F
:1035E000CA5004E0C04602E0C04600E0C046BD4606
:1035F0000AB080BD002D3101145F0000385F00006B
:103600000148E80100400E4000050A0080400E40DD
:1036100088400E4084400E40645F0000B0400E4081
:1036200080B500AF024B1B681800BD4680BDC04688
:103630000C00002080B582B000AF78601120FFF749
:10364000B1FD00220021002000F01CF87B681B78EF
:103650001A007B685B78DB021A437B689B781B0649
:103660001A437B68DB781B021343044904481A00A1
:10367000FEF725FEC046BD4602B080BD7F1B000799
:1036800038400E4090B589B000AF0400080011002A
:10369000FB1D221C1A70BB1D021C1A707B1D0A1C0C
:1036A0001A70FB1D1B78042B00D9A8E09A00564B1A
:1036B000D3181B689F4601237B6102233B610123D2
:1036C000FB610023BB6125E004237B6108233B6190
:1036D0000323FB610223BB611CE010237B612023D9
:1036E0003B610523FB610423BB6113E040237B6145
:1036F00080233B610723FB610623BB610AE0802333
:103700005B007B6180239B003B610923FB610823F5
:10371000BB61C046BB1D1B78002B63D00F23FB1879
:1037200000221A70FB1D1B78022B13D1FEF784FFB9
:103730000300012B0ED1354BDB6B0F23FB1801224D
:103740001A70334B5B6A03221340032B02D1022011
:10375000FEF77EFF2E4B7A691A66C046BB692D4A7A
:1037600019001000FEF777FD031EF7D07B1D1B78B4
:10377000002B45D0C046FB69264A19001000FEF711
:103780006AFD031EF7D0FB1D1B78022B38D10F23D7
:10379000FB181B78002B33D01D4B5B6A03221340B0
:1037A000032B03D00021022000F0BAF8022000F021
:1037B00033F80300BB60012200210220FFF762FF03
:1037C000BB681900022000F051F8114B7A691A66A3
:1037D000C046FB690F4A19001000FEF73CFD031EAE
:1037E000F7D00DE00A4B3A691A66C046BB69094A30
:1037F00019001000FEF72FFD031EF7D100E0C046B0
:10380000BD4609B090BDC046905F000000300E403C
:1038100000400E4090400E4080B584B000AF0200E2
:10382000FB1D1A70FB1D1B78032B09D0042B0DD038
:10383000012B11D10C4B1B6ADB05DB0DFB600EE08D
:10384000094B1B697F221340FB6008E0064B9B6914
:103850007F221340FB6002E00023FB60C046FB6850
:103860001800BD4604B080BD00400E4080B582B057
:1038700000AF02003960FB1D1A70FB1D1B78032B83
:1038800019D0042B2DD0012B00D040E03B68DB0584
:10389000DB0D3B60C046204B1A211800FEF7DBFC15
:1038A000031EF8D11D4B1B6A5B0A59021B4B3A6879
:1038B0000A431A622BE03B687F2213403B60C046FC
:1038C000154B18211800FEF7C6FC031EF8D1134B48
:1038D0001B697F2293431900104B3A680A431A610F
:1038E00015E03B687F2213403B60C0460A4B19211C
:1038F0001800FEF7B0FC031EF8D1084B9B697F222D
:1039000093431900054B3A680A439A61C046C04682
:10391000BD4602B080BDC04640410E4000400E4052
:1039200080B584B000AF0200FB1D1A70BB1D0A1CDD
:103930001A70FEF781FE0300012B03D18023DB0305
:10394000FB600AE0BB1D1B78002B03D18023DB0347
:10395000FB6002E0084BFB60C046C046074A90236C
:10396000D358FA681340FA689A42F7D10123180035
:10397000BD4604B080BDC046FF33413A00400E4012
:1039800080B582B000AFEFF310833B603B687B6093
:1039900072B67B681800BD4602B080BD80B582B0AB
:1039A00000AF78607B68002B00D162B6C046BD4690
:1039B00002B080BD80B500AFFCF70CFCC046BD4630
:1039C00080BD80B582B000AF786039607B681A68CE
:1039D0003B68DA401300012213401800BD4602B0D4
:1039E00080BD000080B500AFC046054B1221180015
:1039F000FFF7E7FF031EF8D1C046BD4680BDC046B5
:103A000004300E4080B500AFFFF7ECFF044B5B685D
:103A10001B0C03221340DBB21800BD4680BDC0461C
:103A200000300E4080B500AF034AC0235B00002188
:103A3000D150C046BD4680BD00400E4080B500AFAD
:103A4000034AC0235B000349D150C046BD4680BD38
:103A500000400E400E58000080B582B000AF02005A
:103A6000FB1D1A70FB1D1B780222D31A10229A40EC
:103A700013001800BD4602B080BD000090B585B0AF
:103A800000AF0200FB1D1A70FB1D1B78002B1BD121
:103A9000484A9023D258484B1A601120FFF782FB06
:103AA00003001A00454B1A70FFF79CFF444B5B68FC
:103AB0001B0CDBB203221340DAB2424B1A703D4BAF
:103AC0001A69414B1A6071E03E4B1B783C4C180060
:103AD000FFF7C2FF03002361364AC0235B00D358BF
:103AE00001221340FB60FFF7A9FF0023BB60324BAC
:103AF0001B6801221340BA681343BB602E4B1B683E
:103B000010221340BA681343BB602B4B1B68402242
:103B10001340BA681343BB60274B1B680422134051
:103B2000BA681343BB60244B1A6880235B001340C0
:103B3000BA681343BB601F4BBA681A66FFF752FF9F
:103B40001F4B1B681022134019D0C046194AA023EE
:103B50005B00D25880235B041340F7D1154A1A4BFF
:103B60001B681361154B1B78052B08D1174B1C687C
:103B7000FFF748FF030019002000FEF737FD0F4B49
:103B80001B78052B05D00D4B1B7819001120FFF772
:103B9000FDFB094B1B680122134002D1054B022299
:103BA0001A66FB68002B01D0FFF73CFFC046BD46FC
:103BB00005B090BD00400E40982E00209C2E0020A5
:103BC00000300E409D2E0020A02E00200C00002072
:103BD00080B582B000AFFFF705FF104B1B681B0AD2
:103BE000032213407B600D4B5B681B0C03221340C8
:103BF0003B607A683B689A4206D9084B1A68074BC3
:103C000010210A431A6005E0044B1A68034B102187
:103C10008A431A60C046BD4602B080BD00300E40E7
:103C200080B582B000AF0A4B1B68102213400BD046
:103C3000084B1B691B0C1F2213407B607B68082B01
:103C400002D1054B054A1A60C046BD4602B080BD90
:103C500000300E4000400E400C000020C0EA210160
:103C600080B582B000AF0200FB1D1A70FB1D1B78EF
:103C7000002B02D00020FFF701FFFFF7A9FF0B4B3D
:103C80001A690A4B04210A431A6130BFFB1D1B78D5
:103C9000002B03D00120FFF7F1FE03E0FFF7C0FF88
:103CA000FFF788FEC046BD4602B080BD00ED00E0D3
:103CB00080B584B000AF78600A00FB1C1A70174A08
:103CC00080235B00D3581B0A1F2213400133BB60C3
:103CD0007B68002B06D1FCF7A9FA0200BB685343AE
:103CE000FB6001E07B68FB600D4B1B78002B0AD06A
:103CF000FB680C4A934206D8FB1C1B781900022073
:103D000000F012F805E0FB1C1B781900002000F001
:103D10000BF8C046BD4604B080BDC04600400E4012
:103D2000942E0020FF2C3101B0B586B000AF020008
:103D3000FB1D1A70BB1D0A1C1A70214A80235B00F0
:103D4000D3581B0A1F22134001337B61FCF76EFA24
:103D500003003B610F257C19FFF754FE030023701D
:103D60007A19FB1D12781B789A4224D03B697A6934
:103D70005343BB60FB1D1B78022B04D13B6902211E
:103D80001800FEF733FC0F4CFB1D1B781800FFF7E3
:103D900063FE03002361BB1D1B78002B01D0FFF7DE
:103DA00021FEFB1D1B78002B06D13B69002118006A
:103DB000FEF71CFC00E0C046BD4606B0B0BDC046E4
:103DC00000400E4000300E4080B586B000AFF86075
:103DD000B9607A60FB681B687B610122BB689A400E
:103DE0001300DB431A007B691A407B6801211940EC
:103DF000BB6899400B001A43FB681A60C046BD4679
:103E000006B080BD80B584B000AF786039607B6853
:103E1000C022D20494466344FB60FB683A681A608F
:103E2000C046BD4604B080BD80B584B000AF7860A8
:103E300039607B688022D20494466344FB60FB684F
:103E40003A681A60C046BD4604B080BD80B584B0F3
:103E500000AFF860B9607A60BA68FB6811001800BA
:103E6000FFF7E2FF7A68FB6811001800FFF7CAFF4E
:103E7000C046BD4604B080BD80B582B000AF020030
:103E80003960FB1D1A70FB1D1B78002B0DD0FB1D2C
:103E90001B78012B09D0FB1D1B78022B05D0FB1DC5
:103EA0001B78032B01D0FB1D1B78FB1D1A78130018
:103EB0005B009B181B010C33064A981801223B68D3
:103EC0009A4013001900FFF7AFFFC046BD4602B08D
:103ED00080BDC0460080084080B582B000AF0200BF
:103EE0003960FB1D1A70FB1D1B78002B0DD0FB1DCC
:103EF0001B78012B09D0FB1D1B78022B05D0FB1D65
:103F00001B78032B01D0FB1D1B78FB1D1A781300B7
:103F10005B009B181B010C33064A981801223B6872
:103F20009A4013001900FFF76DFFC046BD4602B06E
:103F300080BDC0460080084090B587B000AFB96032
:103F40007A6019000F243B19021C1A700E23FB180B
:103F50000A1C1A7000237B613B191B78002B11D0BF
:103F60000F23FB181B78012B0CD00F23FB181B7899
:103F7000022B07D00F23FB181B78032B02D00F2333
:103F8000FB181B787B68072B11D87B689B000F22DE
:103F90009A4011000F23FB181A787B689B009A4007
:103FA00013001A00334B1800FFF750FF13E07B6833
:103FB000083B7B617B699B000F229A4011000F2315
:103FC000FB181A787B699B009A4013001A002A4B51
:103FD0001800FFF73BFF7B68072B10D87B689B001E
:103FE00003229A401100BB6803221A407B689B00A1
:103FF0009A40130021481A00FFF728FF0FE07B6961
:104000009B0003229A401100BB6803221A407B697F
:104010009B009A4013001A481A00FFF717FF0E235F
:10402000FB181A787B6817481900FFF7CDFE20238C
:1040300008229446BC4463441A787B6812481900ED
:10404000FFF7C2FE01227B689A4013000F4A190055
:104050000F4BD150242308229446BC4463441A7861
:104060007B680C481900FFF7AFFEC046BD4607B09D
:1040700090BDC0460084084004840840088408407D
:104080000C840840108408401484084000800840D4
:10409000240400002884084090B585B000AFB960C2
:1040A00011007B600F243B19021C1A700E23FB18B1
:1040B0000A1C1A703B191B78002B11D00F23FB1818
:1040C0001B78012B0CD00F23FB181B78022B07D079
:1040D0000F23FB181B78032B02D00F23FB181B7830
:1040E0000E23FB181B78002B13D07B68002B08D005
:1040F000BA680F23FB181B7811001800FFF7ECFEBD
:1041000007E0BA680F23FB181B7811001800FFF7AF
:10411000B3FEBB68072B25D836490F243B191A7804
:1041200013005B009B181B01CB1804331B68BA6893
:1041300092000F2191400A00D24313400E22BA1878
:104140001178BA68920091400A00110029483A1982
:104150001278194313005B009B181B01C31804332A
:1041600019602AE023490F243B191A7813005B00D9
:104170009B181B01CB1808331B68BA681E498C4674
:10418000624492000F2191400A00D24313400E2254
:10419000BA181178BA68184884466244920091406F
:1041A0000A00110013483A191278194313005B00F2
:1041B0009B181B01C318083319600E23FB181B78CA
:1041C000002B13D17B68002B08D0BA680F23FB1893
:1041D0001B7811001800FFF77FFE07E0BA680F2375
:1041E000FB181B7811001800FFF746FEC046BD46BD
:1041F00005B090BD00800840F8FFFF3F80B586B055
:1042000000AFF860B9607A60FB680D4A934203D151
:10421000BB68012B00D8C046BB68002B02D0012B25
:1042200004D00AE0FB6810337B6103E0FB681433C1
:104230007B61C0467B697A681A60BD4606B080BD66
:104240000060064080B582B000AF78600A00FB1CB9
:104250001A70FB1C1B78002B03D07B6801225A606C
:1042600002E07B6802225A60C046BD4602B080BDB3
:1042700080B584B000AF786039600023FB603B6894
:104280001B7801225340DBB2002B07D07B689B6870
:104290000122134002D07B6802225A603B685B789F
:1042A000002B04D0FB68802252011343FB603B6863
:1042B0009B78002B04D0FB68802292001343FB60A4
:1042C0003B68DB78002B04D0FB688022520013434C
:1042D000FB603B681B79002B03D0FB684022134333
:1042E000FB603B685B79002B03D0FB6880221343A3
:1042F000FB603B689B799B001A00FB681343FB60E3
:104300003B68DB791B011A00FB681343FB603B68C9
:104310001B7A1A00FB681343FB607B68FA681A601B
:104320003B681B78002B07D07B689B6801221340F9
:1043300002D17B6801225A60C046BD4604B080BDF0
:1043400080B586B000AFF860B9607A60FB681B6822
:104350007B610122BB689A401300DB431A007B6932
:104360001A407B6801211940BB6899400B001A4331
:10437000FB681A60C046BD4606B080BD80B582B0FD
:1043800000AF0200FB1D1A70FB1D1B7804481A00C9
:104390000021FFF7D5FFC046BD4602B080BDC04634
:1043A0000020064080B582B000AF78607B681B7843
:1043B000002B01D0012200E000227B685B78002BFB
:1043C00001D0042300E000231A437B689B78002B74
:1043D00001D0102300E000231A437B68DB78002B18
:1043E00001D0202300E000231A437B681B791B02C5
:1043F0001A437B685B791B031A437B689B799B0399
:104400001A437B68DB79002B02D080231B0200E07B
:1044100000231A437B681B7A1B041A4311007B6834
:104420005B7A002B02D080239A0200E00022034B2B
:104430000A431A60C046BD4602B080BD0020064057
:1044400080B586B000AFF860B9607A60BB68002BB9
:1044500005D10D4B1800FEF7B3FA0300BB60BB6833
:104460005A1E7B685B001900100000F00BFD030072
:104470007B617B691B027B61FB687A695A61C0467C
:10448000BD4606B080BDC0464041050080B582B043
:1044900000AF786039607B683B4A934205D07B6807
:1044A0003A4A934201D07B68394AC0467B6818007B
:1044B00000F070F87B681A683B681B8A01210B4387
:1044C0009BB219003B689B7B002B02D08023DB0052
:1044D00000E000230B431A437B681A607B681A686C
:1044E0003B681B7D002B02D080239B0500E000234E
:1044F0001A437B681A603B689B7C002B08D03B68A2
:10450000DB7C802252421343DBB21A007B689A653F
:104510003B681B7B1A0080235B011A437B685A604F
:104520003B6859683B689A687B681800FFF788FF0A
:104530003B685B7B002B02D07B681022DA603B6813
:104540005B7D002B06D07B681B68802252021A43D9
:104550007B681A603B689B7D1B071A00E023DB0524
:104560001A403B68DB7D1B051900E023DB030B4091
:104570001A437B681A663B681B781A007B68DA600E
:10458000C046BD4602B080BD0000014000040140AD
:104590000008014080B582B000AF78607B68244A93
:1045A000934209D07B68234A934205D07B68224A14
:1045B000934201D07B68214AC0467B68204ADA607A
:1045C0007B6800221A607B681E4A5A607B68002262
:1045D0009A607B6800225A617B680022DA647B68FB
:1045E000194A9A647B6800225A677B6800229A679E
:1045F0007B680022DA677B680D4A934203D07B68B0
:104600000D4A934202D17B6800221A657B68002222
:104610009A657B68074A934203D07B68074A9342B6
:1046200002D17B680022DA65C046BD4602B080BD7B
:10463000000001400004014000080140000C01405E
:10464000AA0E000005100000F9FF010080B582B03D
:1046500000AF78600A00FB1C1A70C0467B681B69BB
:1046600040221340FAD0FB1C1A787B685A63C0467C
:10467000BD4602B080BD80B582B000AF78600A0050
:10468000BB1C1A80C0467B681B6940221340FAD0CD
:10469000BB1C1A887B68DA63C046BD4602B080BD89
:1046A00080B582B000AF0200FB1D1A70FB1D1B78A5
:1046B0007F2B09D8FB1D1B781A001F231A40044BBF
:1046C000012191400A001A60C046BD4602B080BD7B
:1046D00000E100E080B582B000AF0200FB1D1A705F
:1046E000FB1D1B787F2B0AD8FB1D1B781A001F238C
:1046F0001340054901229A40C0235B00CA50C046BE
:10470000BD4602B080BDC04600E100E080B582B089
:1047100000AF78600349044A7B688B50C046BD46B1
:1047200002B080BD008008402404000080B500AFC6
:10473000024A034BD3581800BD4680BD0080084094
:104740001C04000090B585B002AF04003960100071
:104750001900FB1D221C1A70BB1D021C1A707B1D48
:104760000A1C1A70BB1D1C783A683968FB1D187842
:104770001823FB181B7801937B1D1B7800932300E3
:10478000FFF7DAFBC046BD4603B090BD80B500AF71
:104790008023DB0501225A64C046BD4680BD80B53A
:1047A00082B000AF786039607B683A689A62C04630
:1047B000BD4602B080BD80B582B000AF78607B6836
:1047C0001B6A1800BD4602B080BD000080B582B0F3
:1047D00002AF1F4B01211800FEF794F801230322BA
:1047E00004210320FFF758FC01230093012300223A
:1047F00004210320FFF7A6FF012303220521032044
:10480000FFF74AFC01230093012300220521032026
:10481000FFF798FF0123032206210320FFF73CFC4A
:10482000012300930123002206210320FFF78AFFC2
:104830000320FFF74FFF0320FFF732FF0B20FFF7A6
:1048400049FF0B20FFF72CFFC046BD4680BDC04688
:1048500000250A0080B582B000AF334B00221A70E9
:10486000324B00221A70324B01221A70314B1B68F6
:104870007B60314B1B683B601EE02F4B1A683B6826
:10488000D31ADAB2284B1B78DBB2D318DAB2264B34
:104890001A703A68284B1A60234B1B78DBB2172B2F
:1048A00003D9214B17221A7001E01F4B1B7800F02F
:1048B0002BF90120FFF7D4F97B6801331A001D4B57
:1048C0001B689A42D9D81EE01B4B1A683B68D31A62
:1048D000DAB2164B1B78DBB2D318DAB2134B1A706C
:1048E0003A68154B1A60114B1B78DBB23B2B03D98E
:1048F0000E4B3B221A7001E00B4B1B7800F004F9C1
:104900000120FFF7ADF97B6802331A00094B1B68E1
:104910009A42D9D8074B02221A60054B00221A701E
:10492000C046BD4602B080BDB12E0020B22E002090
:10493000A82E0020280000202400002080B500AF11
:10494000114B1B78DBB23A2B07D80F4B1B78DBB22D
:104950000133DAB20C4B1A7002E00B4B00221A70D2
:104960000A4B1B78DBB2162B07D8084B1B78DBB23F
:104970000133DAB2054B1A7002E0044B00221A70C0
:10498000C046BD4680BDC046B22E0020B12E0020DC
:1049900080B500AF074B1B68042B04D8054B1B6880
:1049A0005A1C044B1A60044B00221A60C046BD46D4
:1049B00080BDC04628000020E02E002080B500AF5A
:1049C000204B1B68002B05D11F4B1A68FA23DB0014
:1049D0009A422BD81B4B1B68012B05D11A4B1A6826
:1049E000FA239B009A4221D8164B1B68022B05D153
:1049F000154B1A68FA235B009A4217D8114B1B68B3
:104A0000032B03D1104B1B68C82B0FD80D4B1B6811
:104A1000042B03D10C4B1B68642B07D8094B1B6874
:104A2000052B0BD1084B1B68142B07D9054B1B68B2
:104A30005A1E044B1A60044B00221A60C046BD4641
:104A400080BDC04628000020E02E002080B582B046
:104A500000AFFFF76BFE03007B607B681800FFF779
:104A600055FE7B681022134008D0104B1B680E2B9C
:104A700004D80E4B1B685A1C0C4B1A607B68202212
:104A8000134001D0FFF784FF7B684022134008D019
:104A9000064B1B68002B04D0044B1B685A1E034BAB
:104AA0001A60C046BD4602B080BDC046240000204A
:104AB00080B582B000AF0B4B1800FFF77CFE0300FF
:104AC0007B607B68074A19001000FFF768FE064B01
:104AD0001B685A1C044B1A60FFF730FFC046BD46E6
:104AE00002B080BD00600640E02E002080B500AF1F
:104AF000FFF7ACFFC046BD4680BD80B500AFFFF7F5
:104B0000A5FFC046BD4680BD80B588B002AF504A03
:104B10005049514B180000F099FA504B7B61504BB3
:104B20001B78DBB21A0013005B019B185B001A00B4
:104B30007B699B1A7B6100233B614A4B1B68002306
:104B4000FB6027E00023BB601BE0474A3B69D318AA
:104B50001B78FB2B0FD87A69BB68D3181900434B1D
:104B60001A6813005B009B18CB183F493A698A18F2
:104B70001178394AD1543B6901333B61BB68013339
:104B8000BB60BB68112BE0DD7B6942337B61FB6856
:104B90000133FB60FB682F2BD4DD35482E4B01938E
:104BA000B0230093B02300220021FCF774FF002300
:104BB0007B6015E02E4B1B681B885B089BB2283B73
:104BC0001A007B681B01D11829482A4B0193102336
:104BD000009310230022FCF75EFF7B6801337B60AB
:104BE0007A68204B1B689A42E4D3234B1B78DBB2D4
:104BF0001A00224B1B78DBB22149224800F038FA18
:104C00001B4B1B681B885B089BB21900184B2422A6
:104C10009B5C1800164B27229B5CC21813009B0755
:104C20009B1A9B009B1A00D501335B10CA18164BC8
:104C30001B7814490E480193142300931300052296
:104C4000FDF7B4F8FCF740FDC046BD4606B080BD98
:104C5000602D000004630000042F0020F01E0000FF
:104C6000B32E002028000020A45F000024000020B4
:104C7000B42E002064900000B12E0020B22E00203F
:104C8000C4900000AC2E0020A82E002080B584B077
:104C900000AF254B02211800FEF778FB80231B0292
:104CA000224A19001000FDF71DFE204B01211800BB
:104CB000FDF728FE1E4B01211800FDF723FE3B00E7
:104CC000180010231A00002100F0C9F93B0001224E
:104CD0001A703B0000221A703B0001229A703B00C0
:104CE00000221A723B00134A19001000FFF7C0FAA5
:104CF000104B3B2200211800FFF780FA1120FFF72C
:104D0000E9FC1120FFF7CCFC0A4B202252429A62A8
:104D1000084B0122DA62074B01211800FFF792FAD3
:104D2000C046BD4604B080BD02001E0080161600BD
:104D300000050A000060064080B500AF0C4B1A6801
:104D40000C4B1B689A4205D10B4B1A680B4B1B6826
:104D50009A4209D0064B1A68064B1A60064B1A682D
:104D6000064B1A60012300E000231800BD4680BDF9
:104D700024000020A42E0020280000202C00002069
:104D800090B589B000AFFFF701FD0023FB61FB691F
:104D90001800FEF74FFCFFF719FD0020FBF7E8FEB7
:104DA0000300BB61BB69002B00D0FEE72F4B18004E
:104DB000FCF72EFD0300BB61BB69002B00D0FEE7B2
:104DC0003B1D2B4A13CA13C312681A603A1D274BA6
:104DD00011001800FDF752F80300BB61BB69002BFE
:104DE00000D0FEE7FFF736FDFFF750FF1F4B002214
:104DF0009A60204B1B687B611F4B1A681D4B1A6021
:104E00001E4B1B78DBB20321180000F0C1F80B0029
:104E1000DBB20333DAB21A4B1A70FFF775FE184B88
:104E20001B78DBB20233DAB2154B1A707A69114B78
:104E30001A60FFF769FE124B1B78DBB2023BDAB255
:104E40000F4B1A70FFF7BAFDFFF75EFE0C4B1B7895
:104E5000DBB2033BDAB20A4B1A70FFF755FEFFF7DD
:104E60006BFF0120FEF7FCFEC3E7C046B42E002016
:104E7000FC5D000024000020A42E0020B22E0020A3
:104E8000B32E0020002243088B4274D303098B42C7
:104E90005FD3030A8B4244D3030B8B4228D3030C0A
:104EA0008B420DD3FF22090212BA030C8B4202D3AC
:104EB0001212090265D0030B8B4219D300E0090AD4
:104EC000C30B8B4201D3CB03C01A5241830B8B42DD
:104ED00001D38B03C01A5241430B8B4201D34B03C6
:104EE000C01A5241030B8B4201D30B03C01A52412B
:104EF000C30A8B4201D3CB02C01A5241830A8B42B0
:104F000001D38B02C01A5241430A8B4201D34B0298
:104F1000C01A5241030A8B4201D30B02C01A5241FC
:104F2000CDD2C3098B4201D3CB01C01A52418309B0
:104F30008B4201D38B01C01A524143098B4201D3EA
:104F40004B01C01A524103098B4201D30B01C01A15
:104F50005241C3088B4201D3CB00C01A524183088F
:104F60008B4201D38B00C01A524143088B4201D3BC
:104F70004B00C01A5241411A00D20146524110461C
:104F80007047FFE701B5002000F006F802BDC046FB
:104F90000029F7D076E770477047C0461C210123EF
:104FA0001B04984201D3000C10391B0A984201D30C
:104FB000000A08391B09984201D30009043902A2EA
:104FC000105C40187047C046040302020101010151
:104FD0000000000000000000084B10B50400002B8A
:104FE00002D0002100E000BF054B1868836A002B47
:104FF00000D09847200000F047FCC04600000000A9
:10500000D090000070B500260C4D0D4C641BA41010
:10501000A64209D1002600F039FC0A4D0A4C641B57
:10502000A410A64205D170BDB300EB5898470136D5
:10503000EEE7B300EB5898470136F2E79400002002
:10504000940000209400002098000020002310B558
:105050009A4200D110BDCC5CC4540133F8E7030080
:105060001218934200D1704719700133F9E700001C
:105070000EB400B50B499CB01DAB02900690079191
:1050800004910948094904CB0591006802A90193DC
:1050900000F070F80023029A13701CB008BC03B033
:1050A0001847C046FFFFFF7F300000200802FFFFC7
:1050B000F0B58E6885B007000C00039201939E4204
:1050C0003CD890238A89DB001A4234D00325096931
:1050D00023685B1A0293636902985D43EB0F5D19C5
:1050E000019B6D1001331B18AB4200D91D00530505
:1050F00032D52900380000F019FB061E09D10C2317
:105100003B6040230120A28940421343A38105B0A4
:10511000F0BD029A2169FFF799FFA389144A1A404A
:1051200080231343A381029B2661F61826606561E4
:10513000019EED1AA560019B9E4200D9019E32009E
:105140000399206800F095FAA36800209B1BA360D8
:1051500023689E192660DAE72A00380000F044FB35
:10516000061EE0D12169380000F096FAC7E7C04674
:105170007FFBFFFFF0B59FB0029005938B890F0076
:1051800016001B0611D50B69002B0ED1402100F033
:10519000CDFA38603861002805D10C23029A013815
:1051A00013601FB0F0BD40237B61002306AC636138
:1051B000203363761033A37635002B78002B01D093
:1051C000252B46D1AB1B04930CD03200390002983A
:1051D000FFF76EFF431C00D1AEE06269049B94466A
:1051E000634463612B78002B00D1A5E001220023EA
:1051F0005242626002A9543252186E1C2360E3606E
:10520000A3601370A36531780522544800F026FA94
:10521000751C00281FD12268D30604D5532302A988
:105220005B1820211970130704D5532302A95B18BA
:105230002B21197033782A2B16D0350000210A2033
:10524000E3682A786E1C303A092A4ED9002918D012
:1052500010E00135B1E7414B2268C01A01238340B9
:10526000134323602E00CEE7059B191D1B68059193
:10527000002B01DB099304E05B42E360022313434C
:1052800023602B782E2B0AD16B782A2B35D1059BE6
:1052900002351A1D1B680592002B2BDB0793304E3D
:1052A00029780322300000F0D9F9002806D04023E5
:1052B000801B83402268013513432360297806222E
:1052C00028486E1C217600F0C9F900283CD0264BF6
:1052D000002B25D10722059B073393430833059301
:1052E0006369039A9B18636166E7434301219B1836
:1052F0003500A6E701235B42D0E700230A201A000D
:105300000135636029786E1C3039092903D9002BD7
:10531000C5D00792C3E74243012352183500F1E795
:1053200005AB00933A00114B2100029800E000BF4A
:105330000390039B0133D3D1BB890B985B0600D448
:105340002FE7012040422CE705AB00933A00074BC2
:105350002100029800F07AF8EAE7C046D4900000F5
:10536000DA900000DE90000000000000B150000064
:10537000F7B5150001938A680B6900900C00934201
:1053800000DA130022002B6043321278002A01D089
:1053900001332B6023689B0602D52B6802332B60F8
:1053A000062723681F4027D0230043331B785A1E4B
:1053B00093412268920630D422000199433200982A
:1053C000089EB047431C25D0062320682A68E16860
:1053D00003400025042B03D18D1AEB43DB171D403E
:1053E000A3682269934201DD9B1AED180027BD4294
:1053F00020D1002010E00137E3682A689B1ABB42E5
:10540000D2DD22000123193201990098089EB0478D
:10541000431CF0D101204042FEBD3020E118433151
:10542000087021005A1C45310978A2184332023312
:105430001170C1E7220001231A3201990098089ED9
:10544000B047431CE6D00137D1E70000F0B589B082
:1054500004920A0043320593039002920A7E0C00E4
:105460000E9B6E2A00D186E01FD8632A33D008D85D
:10547000002A00D18CE0582A4DD0250042352A70F0
:1054800030E0642A01D0692AF7D1196825680A1D1D
:10549000280629D508681A60002803DA2D23029A05
:1054A000404213706B4E0A274FE0732A74D008D81D
:1054B0006F2A1FD0702AE0D1202209680A43226097
:1054C00003E0752A16D0782AD7D1220078214532F8
:1054D0001170614E22E025001A684235111D1960D5
:1054E00013682B70012365E008681A606906D3D53C
:1054F00000B2D1E719682568081D186008682E06F3
:1055000005D5544E08276F2A1BD00A2719E06D06CF
:10551000F7D580B2F5E745314E4E0A70186822681B
:10552000011D00681960150621D5D30702D5202377
:105530001A4322601027002803D1202322689A43AF
:1055400022602300002243331A706368A360002B9B
:1055500058DB0422216891432160002854D1029D28
:10556000002B5AD02500337842352B7055E0550674
:10557000DBD580B2D9E71A680D68101D496918603B
:1055800013682E0601D5196002E06D06FBD519805F
:105590000023029D23614FE01A68111D19601568F0
:1055A00000216268280000F059F8002801D0401B53
:1055B0006060636823610023029A13703CE02369F2
:1055C0002A0004990398059DA847431C3ED02368F0
:1055D0009B0715D4079BE068984239DA180037E03A
:1055E00022000123193204990398059EB047431CF9
:1055F0002CD00135E368079A9B1AAB42F0DCE9E74F
:105600000025F7E70028ADD0029D3900FFF7C0FC68
:10561000735C013D2B700028F7D1082F09D1236856
:10562000DB0706D563682269934202DC3023013D23
:105630002B70029B5B1B2361059B07AA0093210033
:10564000049B0398FFF794FE431CB8D1012040420D
:1056500009B0F0BDE5900000F6900000C9B28218D4
:10566000904201D10020704703788B42FBD001307B
:10567000F6E710B5884202D98B18984203D300236D
:1056800007E08B5C8354013AFBD210BDCC5CC45460
:1056900001339A42FAD1F8E770B50500002910D01D
:1056A0000C1F2368002B00DAE418280000F0D4F85F
:1056B0001D4A1368002B05D163601460280000F0B8
:1056C000CCF870BDA34209D9216860188342F3D198
:1056D00018685B6841182160EEE713005A68002AD9
:1056E00001D0A242F9D919685818A0420BD12068FC
:1056F0000918581819608242E0D1106852684118A0
:1057000019605A60DAE7A04202D90C232B60D5E772
:1057100021686018824203D11068526841182160E4
:1057200062605C60CAE7C046E42E0020032370B5C7
:10573000CD1C9D43083506000C2D1ED20C25A94218
:105740001DD8300000F088F8254A1468210000298F
:1057500019D1244C2368002B03D1300000F06AF8E3
:1057600020602900300000F065F8431C2BD10C2389
:105770003000336000F071F803E0002DDFDA0C2315
:105780003360002070BD0B685B1B19D40B2B03D951
:105790000B60CC18256003E04B688C420DD1136080
:1057A000300000F05AF8200007220B30231D9043F0
:1057B000C31AE7D05A42E250E4E763600C00EFE717
:1057C0000C004968C3E70323C41C9C43A042E1D0FA
:1057D000211A300000F02EF8431CDBD1C7E7C04689
:1057E000E42E0020E82E0020F8B507000D0016007A
:1057F000002905D11100FFF799FF04002000F8BD32
:10580000002A03D1FFF748FF3400F7E700F026F83D
:105810002C00B042F2D231003800FFF787FF041E9F
:10582000ECD029003200FFF711FC29003800FFF707
:1058300033FFE3E7002370B5064C05000800236042
:1058400000F014F8431C03D12368002B00D02B6018
:1058500070BDC046846B0020704770470B1F1B68EB
:10586000181F002B01DA0B58C0187047044A136840
:10587000002B00D1034B1818106018007047C04669
:10588000EC2E0020886B0020FEE7C046F8B5C0462D
:10589000F8BC08BC9E467047F8B5C046F8BC08BCCA
:1058A0009E4670474A6170616E20446973706C61F6
:1058B00079204C504D3031334D31323641000000AB
:1058C000050000000000000040420F00050100003C
:1058D00000000000000000000100000005000000C2
:1058E00000000000020000030000000000186C6CC3
:1058F00010CE3808600C0000000000007C307C7C7A
:10590000C6FE7CFE7C7C000070001C7C7C7C7E7C67
:105910007EFEFE7CC63C78C606C6C67C7E7C7E7C4F
:105920007EC6C6C6C6C6FE7C007C10000C00060003
:1059300060003800060000060C00000000000000B7
:10594000000000000000003018188C00000000006B
:1059500000186CFEFC6A2C1830186C18000000C08F
:10596000C638C6C6C606C6C0C6C61818387C38C6ED
:10597000C6C6C6C6C60606C6C618306606EECEC67B
:10598000C6C6C6C618C6C6C6C6C6C00C066038009F
:105990000C00060060000C00061830060C00000029
:1059A0000000000018000000000000181830D600A9
:1059B00000000000001848FE162E2C181830381869
:1059C00000000060C63060C0C6060660C6C6181873
:1059D0001C7C70C6F6C6C606C6060606C618303655
:1059E00006FEDEC6C6C6C60618C6C6C66CC6600CAF
:1059F0000C606C00043C3E3C7C3C3C3C3E00006641
:105A00000C6E3E3C3E3C363C186666C666667E18AA
:105A100018306200000000000018006C7C10DC00F0
:105A20001830FE7E1C7E0030C6303070FE7E7E3028
:105A30007CFC00000E00E070F6FE7E06C61E1EF620
:105A4000FE18301E06D6F6C67EC67E7C18C6C6D6A2
:105A500038FC300C1860C6000060660666660C668E
:105A6000661830360CD6666666666E067C6666C656
:105A70003C66300C0060000000000000000000FEEA
:105A8000D0E866001830387E1C7E1C18C63018C05E
:105A9000C0C0C618C6C018181C7C703076C6C606B2
:105AA000C60606C6C618303606C6E6C606B6C6C060
:105AB00018C6C6FE6CC0180C30600000007C66067C
:105AC000667E0C7C6618301E0CD666663E56063C1A
:105AD000186666D6187C1818183000000000000000
